:1000000080314028080008007E1480314E01161A05
:100010000C1E0D28DF311D2780310B1F3E284E019D
:100020009A18901C1628DE31A12680314E01991AAB
:100030008F1E202843016D088A006C080A00803159
:100040004E01191A0F1E2A2843016F088A006E08F4
:100050000A0080314E0119190F1D342842016A0827
:100060008A0069080A0080314E0199198F1D3E28C7
:1000700042016A088A0069080A0080317E1009007E
:10008000803142284201DE315D268031EC00DE31D4
:100090005E268031ED00DE315F268031EE00DE31FC
:1000A00060268031EF00F83084002E308500F83073
:1000B000FE000030FF00DE31AD268031FC01410141
:1000C000E901EA01EB01EC01ED01EE01EF01203065
:1000D0008400013085004130FE000030FF00DE3139
:1000E000AD268031A0308400013085004430FE0010
:1000F0000030FF00DE31AD26803120308400023038
:1001000085004830FE000030FF00DE31AD26803132
:10011000A0308400023085003A30FE000030FF003D
:10012000DE31AD2680312030840003308500403040
:10013000FE000030FF00DE31AD268031A0308400AB
:10014000033085002030FE000030FF00DE31AD2698
:100150007E104001B3314D2BC7341234D6340B34EA
:100160000A340934743407346C3406342D340634BC
:100170005E3404349134033417340334C33402340A
:1001800085340234563402342F3402340F340234AE
:10019000F4340134DD340134C8340134B73401346B
:1001A000A7340134983401348B3401347F34013462
:1001B000753401346B340134623401345934013400
:1001C000513401344A340134433401343C34013471
:1001D00036340134303401342B34013426340134C4
:1001E000213401341C340134183401341334013403
:1001F0000F3401340B340134083401340434013435
:1002000000340134FD340034FA340034F73400345F
:10021000F4340034F1340034EE340034EC3400347F
:10022000E9340034E7340034E4340034E234003498
:10023000E0340034DD340034DB340034D9340034AD
:10024000D7340034D5340034D3340034D1340034BE
:10025000D0340034CE340034CC340034CA340034CA
:10026000C9340034C7340034C6340034C4340034D4
:10027000C3340034C1340034C0340034BE340034DC
:10028000BD340034BC340034BA340034B9340034E2
:10029000B8340034B7340034B5340034B4340034E6
:1002A000B3340034B2340034B1340034B0340034E8
:1002B000AF340034AE340034AD340034AB340034E9
:1002C000AA340034AA340034A9340034A8340034E9
:1002D000A7340034A6340034A5340034A4340034E8
:1002E000A3340034A2340034A1340034A1340034E7
:1002F000A03400349F3400349E3400349D340034E4
:100300009D3400349C3400349B3400349A340034DF
:100310009A340034993400349834003497340034DB
:1003200097340034963400349534003495340034D6
:1003300094340034933400349334003492340034D1
:1003400092340034913400349034003490340034CA
:100350008F3400348F3400348E3400348D340034C4
:100360008D3400348C3400348C3400348B340034BD
:100370008B3400348A3400348A34003489340034B5
:1003800089340034883400348834003487340034AD
:1003900087340034863400348634003485340034A5
:1003A000853400348434003484340034833400349D
:1003B0008334003482340034823400348234003494
:1003C000813400348134003480340034803400348B
:1003D0007F3400347F3400347F3400347E34003482
:1003E0007E3400347D3400347D3400347D34003478
:1003F0007C3400347C3400347B3400347B3400346F
:100400007B3400347A3400347A3400347A34003463
:100410007934003479340034793400347834003459
:10042000783400347834003477340034773400344E
:100430007734003476340034763400347634003443
:100440007534003475340034753400347434003439
:10045000743400347434003473340034733400342E
:100460007334003472340034723400347234003423
:100470007234003471340034713400347134003417
:10048000703400347034003470340034703400340C
:100490006F3400346F3400346F3400346E34003401
:1004A0006E3400346E3400346E3400346D340034F5
:1004B0006D3400346D3400346D3400346C340034E9
:1004C0006C3400346C3400346C3400346B340034DD
:1004D0006B3400346B3400346B3400346A340034D1
:1004E0006A3400346A3400346A34003469340034C5
:1004F00069340034693400346934003468340034B9
:1005000068340034683400346834003468340034AB
:10051000673400346734003467340034673400349F
:100520006634003466340034663400346634003493
:100530006634003465340034653400346534003486
:100540006534003465340034643400346434003479
:10055000643400346434003464340034633400346C
:10056000633400346334003463340034633400345F
:100570006234003462340034623400346234003453
:100580006234003461340034613400346134003446
:100590006134003461340034613400346034003438
:1005A000603400346034003460340034603400342B
:1005B000603400345F3400345F3400345F3400341E
:1005C0005F3400345F3400345E3400345E34003411
:1005D0005E3400345E3400345E3400345E34003403
:1005E0005D3400345D3400345D3400345D340034F7
:1005F0005D3400345D3400345D3400345C340034E8
:100600005C3400345C3400345C3400345C340034DA
:100610005C3400345B3400345B3400345B340034CD
:100620005B3400345B3400345B3400345B340034BE
:100630005A3400345A3400345A3400345A340034B2
:100640005A3400345A3400345A34003459340034A3
:100650005934003459340034593400345934003496
:100660005934003459340034583400345834003488
:10067000583400345834003458340034583400347A
:10068000583400345734003457340034573400346D
:10069000573400345734003457340034573400345E
:1006A0005734003456340034563400345634003451
:1006B0005634003456340034563400345634003442
:1006C0005534003455340034553400345534003436
:1006D0005534003455340034553400345534003426
:1006E0005534003454340034543400345434003419
:1006F000543400345434003454340034543400340A
:1007000054340034533400345334003453340034FC
:1007100053340034533400345334003453340034ED
:1007200053340034533400345234003452340034DF
:1007300052340034523400345234003452340034D1
:1007400052340034523400345234003451340034C2
:1007500051340034513400345134003451340034B5
:1007600051340034513400345134003451340034A5
:100770005034003450340034503400345034003499
:100780005034003450340034503400345034003489
:1007900050340034503400344F3400344F3400347B
:1007A0004F3400344F3400344F3400344F3400346D
:1007B0004F3400344F3400344F3400344F3400345D
:1007C0004E3400344E3400344E3400344E34003451
:1007D0004E3400344E3400344E3400344E34003441
:1007E0004E3400344E3400344E3400344D34003432
:1007F0004D3400344D3400344D3400344D34003425
:100800004D3400344D3400344D3400344D34003414
:100810004D3400344D3400344C3400344C34003406
:100820004C3400344C3400344C3400344C340034F8
:100830004C3400344C3400344C3400344C340034E8
:100840004C3400344B3400344B3400344B340034DB
:100850004B3400344B3400344B3400344B340034CC
:100860004B3400344B3400344B3400344B340034BC
:100870004B3400344A3400344A3400344A340034AF
:100880004A3400344A3400344A3400344A340034A0
:100890004A3400344A3400344A3400344A34003490
:1008A0004A34003449340034493400344934003483
:1008B0004934003449340034493400344934003474
:1008C0004934003449340034493400344934003464
:1008D0004934003449340034483400344834003456
:1008E0004834003448340034483400344834003448
:1008F0004834003448340034483400344834003438
:100900004834003448340034483400344834003427
:10091000473400344734003447340034473400341B
:10092000473400344734003447340034473400340B
:1009300047340034473400344734003447340034FB
:1009400047340034463400344634003446340034EE
:1009500046340034463400344634003446340034DF
:1009600046340034463400344634003446340034CF
:1009700046340034463400344634003446340034BF
:1009800045340034453400344534003445340034B3
:1009900045340034453400344534003445340034A3
:1009A0004534003445340034453400344534003493
:1009B0004534003445340034453400344434003484
:1009C0004434003444340034443400344434003477
:1009D0004434003444340034443400344434003467
:1009E0004434003444340034443400344434003457
:1009F0004434003444340034443400344334003448
:100A0000433400344334003443340034433400343A
:100A1000433400344334003443340034433400342A
:100A2000433400344334003443340034433400341A
:100A3000433400344334003443340034433400340A
:100A400042340034423400344234003442340034FE
:100A500042340034423400344234003442340034EE
:100A600042340034423400344234003442340034DE
:100A700042340034423400344234003442340034CE
:100A800042340034413400344134003441340034C1
:100A900041340034413400344134003441340034B2
:100AA00041340034413400344134003441340034A2
:100AB0004134003441340034413400344134003492
:100AC0004134003441340034413400344034003483
:100AD0004034003440340034403400344034003476
:100AE0004034003440340034403400344034003466
:100AF0004034003440340034403400344034003456
:100B00004034003440340034403400344034003445
:100B10004034003440340034403400343F34003436
:100B20003F3400343F3400343F3400343F34003429
:100B30003F3400343F3400343F3400343F34003419
:100B40003F3400343F3400343F3400343F34003409
:100B50003F3400343F3400343F3400343F340034F9
:100B60003F3400343F3400343F3400343E340034EA
:100B70003E3400343E3400343E3400343E340034DD
:100B80003E3400343E3400343E3400343E340034CD
:100B90003E3400343E3400343E3400343E340034BD
:100BA0003E3400343E3400343E3400343E340034AD
:100BB0003E3400343E3400343E3400343D3400349E
:100BC0003D3400343D3400343D3400343D34003491
:100BD0003D3400343D3400343D3400343D34003481
:100BE0003D3400343D3400343D3400343D34003471
:100BF0003D3400343D3400343D3400343D34003461
:100C00003D3400343D3400343D3400343D34003450
:100C10003D3400343D3400343C3400343C34003442
:100C20003C3400343C3400343C3400343C34003434
:100C30003C3400343C3400343C3400343C34003424
:100C40003C3400343C3400343C3400343C34003414
:100C50003C3400343C3400343C3400343C34003404
:100C60003C3400343C3400343C3400343C340034F4
:100C70003C3400343B3400343B3400343B340034E7
:100C80003B3400343B3400343B3400343B340034D8
:100C90003B3400343B3400343B3400343B340034C8
:100CA0003B3400343B3400343B3400343B340034B8
:100CB0003B3400343B3400343B3400343B340034A8
:100CC0003B3400343B3400343B3400343B34003498
:100CD0003B3400343A3400343A3400343A3400348B
:100CE0003A3400343A3400343A3400343A3400347C
:100CF0003A3400343A3400343A3400343A3400346C
:100D00003A3400343A3400343A3400343A3400345B
:100D10003A3400343A3400343A3400343A3400344B
:100D20003A3400343A3400343A3400343A3400343B
:100D30003A3400343A3400343A340034393400342C
:100D4000393400343934003439340034393400341F
:100D5000393400343934003439340034393400340F
:100D600039340034393400343934003439340034FF
:100D700039340034393400343934003439340034EF
:100D800039340034393400343934003439340034DF
:100D900039340034393400343934003439340034CF
:100DA00039340034393400343834003438340034C1
:100DB00038340034383400343834003438340034B3
:100DC00038340034383400343834003438340034A3
:100DD0003834003438340034383400343834003493
:100DE0003834003438340034383400343834003483
:100DF0003834003438340034383400343834003473
:100E00003834003438340034383400343834003462
:100E10003834003438340034373400343734003454
:100E20003734003437340034373400343734003446
:100E30003734003437340034373400343734003436
:100E40003734003437340034373400343734003426
:100E50003734003437340034373400343734003416
:100E60003734003437340034373400343734003406
:100E700037340034373400343734003437340034F6
:100E800037340034373400343734003437340034E6
:100E900036340034363400343634003436340034DA
:100EA00036340034363400343634003436340034CA
:100EB00036340034363400343634003436340034BA
:100EC00036340034363400343634003436340034AA
:100ED000363400343634003436340034363400349A
:100EE000363400343634003436340034363400348A
:100EF000363400343634003436340034363400347A
:100F00003634003436340034363400343634003469
:100F1000353400343534003435340034353400345D
:100F2000353400343534003435340034353400344D
:100F3000353400343534003435340034353400343D
:100F4000353400343534003435340034353400342D
:100F5000353400343534003435340034353400341D
:100F6000353400343534003435340034353400340D
:100F700035340034353400343534003435340034FD
:100F800035340034353400343534003435340034ED
:100F900035340034353400343434003434340034DF
:100FA00034340034343400343434003434340034D1
:100FB00034340034343400343434003434340034C1
:100FC00034340034343400343434003434340034B1
:100FD00034340034343400343434003434340034A1
:100FE0003434003434340034343400343434003491
:100FF0003434003434340034343400343434003481
:101000003434003434340034343400343434003470
:101010003434003434340034343400343434003460
:101020003434003433340034333400343334003453
:101030003334003433340034333400343334003444
:101040003334003433340034333400343334003434
:101050003334003433340034333400343334003424
:101060003334003433340034333400343334003414
:101070003334003433340034333400343334003404
:1010800033340034333400343334003433340034F4
:1010900033340034333400343334003433340034E4
:1010A00033340034333400343334003433340034D4
:1010B00033340034333400343334003432340034C5
:1010C00032340034323400343234003432340034B8
:1010D00032340034323400343234003432340034A8
:1010E0003234003432340034323400343234003498
:1010F0003234003432340034323400343234003488
:101100003234003432340034323400343234003477
:101110003234003432340034323400343234003467
:101120003234003432340034323400343234003457
:101130003234003432340034323400343234003447
:101140003234003432340034323400343234003437
:101150003234003432340034323400343134003428
:10116000313400343134003431340034313400341B
:10117000313400343134003431340034313400340B
:1011800031340034313400343134003431340034FB
:1011900031340034313400343134003431340034EB
:1011A00031340034313400343134003431340034DB
:1011B00031340034313400343134003431340034CB
:1011C00031340034313400343134003431340034BB
:1011D00031340034313400343134003431340034AB
:1011E000313400343134003431340034313400349B
:1011F000313400343134003431340034313400348B
:10120000313400343034003430340034303400347D
:10121000303400343034003430340034303400346E
:10122000303400343034003430340034303400345E
:10123000303400343034003430340034303400344E
:10124000303400343034003430340034303400343E
:10125000303400343034003430340034303400342E
:10126000303400343034003430340034303400341E
:10127000303400343034003430340034303400340E
:1012800030340034303400343034003430340034FE
:1012900030340034303400343034003430340034EE
:1012A00030340034303400343034003430340034DE
:1012B0003034003430340034303400342F340034CF
:1012C0002F3400342F3400342F3400342F340034C2
:1012D0002F3400342F3400342F3400342F340034B2
:1012E0002F3400342F3400342F3400342F340034A2
:1012F0002F3400342F3400342F3400342F34003492
:101300002F3400342F3400342F3400342F34003481
:101310002F3400342F3400342F3400342F34003471
:101320002F3400342F3400342F3400342F34003461
:101330002F3400342F3400342F3400342F34003451
:101340002F3400342F3400342F3400342F34003441
:101350002F3400342F3400342F3400342F34003431
:101360002F3400342F3400342F3400342F34003421
:101370002F3400342F3400342F3400342E34003412
:101380002E3400342E3400342E3400342E34003405
:101390002E3400342E3400342E3400342E340034F5
:1013A0002E3400342E3400342E3400342E340034E5
:1013B0002E3400342E3400342E3400342E340034D5
:1013C0002E3400342E3400342E3400342E340034C5
:1013D0002E3400342E3400342E3400342E340034B5
:1013E0002E3400342E3400342E3400342E340034A5
:1013F0002E3400342E3400342E3400342E34003495
:101400002E3400342E3400342E3400342E34003484
:101410002E3400342E3400342E3400342E34003474
:101420002E3400342E3400342E3400342E34003464
:101430002E3400342E3400342E3400342E34003454
:101440002E3400342E3400342D3400342D34003446
:101450002D3400342D3400342D3400342D34003438
:101460002D3400342D3400342D3400342D34003428
:101470002D3400342D3400342D3400342D34003418
:101480002D3400342D3400342D3400342D34003408
:101490002D3400342D3400342D3400342D340034F8
:1014A0002D3400342D3400342D3400342D340034E8
:1014B0002D3400342D3400342D3400342D340034D8
:1014C0002D3400342D3400342D3400342D340034C8
:1014D0002D3400342D3400342D3400342D340034B8
:1014E0002D3400342D3400342D3400342D340034A8
:1014F0002D3400342D3400342D3400342D34003498
:101500002D3400342D3400342D3400342D34003487
:101510002D3400342D3400342D3400342D34003477
:101520002D3400342C3400342C3400342C3400346A
:101530002C3400342C3400342C3400342C3400345B
:101540002C3400342C3400342C3400342C3400344B
:101550002C3400342C3400342C3400342C3400343B
:101560002C3400342C3400342C3400342C3400342B
:101570002C3400342C3400342C3400342C3400341B
:101580002C3400342C3400342C3400342C3400340B
:101590002C3400342C3400342C3400342C340034FB
:1015A0002C3400342C3400342C3400342C340034EB
:1015B0002C3400342C3400342C3400342C340034DB
:1015C0002C3400342C3400342C3400342C340034CB
:1015D0002C3400342C3400342C3400342C340034BB
:1015E0002C3400342C3400342C3400342C340034AB
:1015F0002C3400342C3400342C3400342C3400349B
:101600002C3400342C3400342C3400342C3400348A
:101610002B3400342B3400342B3400342B3400347E
:101620002B3400342B3400342B3400342B3400346E
:101630002B3400342B3400342B3400342B3400345E
:101640002B3400342B3400342B3400342B3400344E
:101650002B3400342B3400342B3400342B3400343E
:101660002B3400342B3400342B3400342B3400342E
:101670002B3400342B3400342B3400342B3400341E
:101680002B3400342B3400342B3400342B3400340E
:101690002B3400342B3400342B3400342B340034FE
:1016A0002B3400342B3400342B3400342B340034EE
:1016B0002B3400342B3400342B3400342B340034DE
:1016C0002B3400342B3400342B3400342B340034CE
:1016D0002B3400342B3400342B3400342B340034BE
:1016E0002B3400342B3400342B3400342B340034AE
:1016F0002B3400342B3400342B3400342B3400349E
:101700002B3400342B3400342B3400342A3400348E
:101710002A3400342A3400342A3400342A34003481
:101720002A3400342A3400342A3400342A34003471
:101730002A3400342A3400342A3400342A34003461
:101740002A3400342A3400342A3400342A34003451
:101750002A3400342A3400342A3400342A34003441
:101760002A3400342A3400342A3400342A34003431
:101770002A3400342A3400342A3400342A34003421
:101780002A3400342A3400342A3400342A34003411
:101790002A3400342A3400342A3400342A34003401
:1017A0002A3400342A3400342A3400342A340034F1
:1017B0002A3400342A3400342A3400342A340034E1
:1017C0002A3400342A3400342A3400342A340034D1
:1017D0002A3400342A3400342A3400342A340034C1
:1017E0002A3400342A3400342A3400342A340034B1
:1017F0002A3400342A3400342A3400342A340034A1
:101800002A3400342A3400342A3400342A34003490
:101810002A3400342A340034293400342934003482
:101820002934003429340034293400342934003474
:101830002934003429340034293400342934003464
:101840002934003429340034293400342934003454
:101850002934003429340034293400342934003444
:101860002934003429340034293400342934003434
:101870002934003429340034293400342934003424
:101880002934003429340034293400342934003414
:101890002934003429340034293400342934003404
:1018A00029340034293400342934003429340034F4
:1018B00029340034293400342934003429340034E4
:1018C00029340034293400342934003429340034D4
:1018D00029340034293400342934003429340034C4
:1018E00029340034293400342934003429340034B4
:1018F00029340034293400342934003429340034A4
:101900002934003429340034293400342934003493
:101910002934003429340034293400342934003483
:101920002934003429340034293400342934003473
:101930002934003429340034293400342834003464
:101940002834003428340034283400342834003457
:101950002834003428340034283400342834003447
:101960002834003428340034283400342834003437
:101970002834003428340034283400342834003427
:101980002834003428340034283400342834003417
:101990002834003428340034283400342834003407
:1019A00028340034283400342834003428340034F7
:1019B00028340034283400342834003428340034E7
:1019C00028340034283400342834003428340034D7
:1019D00028340034283400342834003428340034C7
:1019E00028340034283400342834003428340034B7
:1019F00028340034283400342834003428340034A7
:101A00002834003428340034283400342834003496
:101A10002834003428340034283400342834003486
:101A20002834003428340034283400342834003476
:101A30002834003428340034283400342834003466
:101A40002834003428340034283400342834003456
:101A50002834003428340034283400342834003446
:101A60002834003428340034283400342834003436
:101A70002834003427340034273400342734003429
:101A8000273400342734003427340034273400341A
:101A9000273400342734003427340034273400340A
:101AA00027340034273400342734003427340034FA
:101AB00027340034273400342734003427340034EA
:101AC00027340034273400342734003427340034DA
:101AD00027340034273400342734003427340034CA
:101AE00027340034273400342734003427340034BA
:101AF00027340034273400342734003427340034AA
:101B00002734003427340034273400342734003499
:101B10002734003427340034273400342734003489
:101B20002734003427340034273400342734003479
:101B30002734003427340034273400342734003469
:101B40002734003427340034273400342734003459
:101B50002734003427340034273400342734003449
:101B60002734003427340034273400342734003439
:101B70002734003427340034273400342734003429
:101B80002734003427340034273400342734003419
:101B90002734003427340034273400342734003409
:101BA00027340034273400342734003427340034F9
:101BB00027340034273400342734003427340034E9
:101BC00027340034263400342634003426340034DC
:101BD00026340034263400342634003426340034CD
:101BE00026340034263400342634003426340034BD
:101BF00026340034263400342634003426340034AD
:101C0000263400342634003426340034263400349C
:101EB00025340034253400342534003424340034EF
:101EC00024340034243400342434003424340034E2
:101ED00024340034243400342434003424340034D2
:101EE00024340034243400342434003424340034C2
:101EF00024340034243400342434003424340034B2
:101F000024340034243400342434003424340034A1
:101F10002434003424340034243400342434003491
:101F20002434003424340034243400342434003481
:101F30002434003424340034243400342434003471
:101F40002434003424340034243400342434003461
:101F50002434003424340034243400342434003451
:101F60002434003424340034243400342434003441
:101F70002434003424340034243400342434003431
:101F80002434003424340034243400342434003421
:101F90002434003424340034243400342434003411
:101FA0002434003424340034243400342434003401
:101FB00024340034243400342434003424340034F1
:101FC00024340034243400342434003424340034E1
:101FD00024340034243400342434003424340034D1
:101FE00024340034243400342434003424340034C1
:101FF00024340034243400342434003424340034B1
:1020000024340034243400342434003424340034A0
:102010002434003424340034243400342434003490
:102020002434003424340034243400342434003480
:102030002434003424340034243400342434003470
:102040002434003424340034243400342434003460
:102050002434003424340034243400342434003450
:102060002434003424340034233400342334003442
:102070002334003423340034233400342334003434
:102080002334003423340034233400342334003424
:102090002334003423340034233400342334003414
:1020A0002334003423340034233400342334003404
:1020B00023340034233400342334003423340034F4
:1020C00023340034233400342334003423340034E4
:1020D00023340034233400342334003423340034D4
:1020E00023340034233400342334003423340034C4
:1020F00023340034233400342334003423340034B4
:1021000023340034233400342334003423340034A3
:102110002334003423340034233400342334003493
:102120002334003423340034233400342334003483
:102130002334003423340034233400342334003473
:102140002334003423340034233400342334003463
:102150002334003423340034233400342334003453
:102160002334003423340034233400342334003443
:102170002334003423340034233400342334003433
:102180002334003423340034233400342334003423
:102190002334003423340034233400342334003413
:1021A0002334003423340034233400342334003403
:1021B00023340034233400342334003423340034F3
:1021C00023340034233400342334003423340034E3
:1021D00023340034233400342334003423340034D3
:1021E00023340034233400342334003423340034C3
:1021F00023340034233400342334003423340034B3
:1022000023340034233400342334003423340034A2
:102210002334003423340034233400342334003492
:102220002334003423340034233400342334003482
:102230002334003423340034233400342234003473
:102240002234003422340034223400342234003466
:102250002234003422340034223400342234003456
:102260002234003422340034223400342234003446
:102270002234003422340034223400342234003436
:102280002234003422340034223400342234003426
:102290002234003422340034223400342234003416
:1022A0002234003422340034223400342234003406
:1022B00022340034223400342234003422340034F6
:1022C00022340034223400342234003422340034E6
:1022D00022340034223400342234003422340034D6
:1022E00022340034223400342234003422340034C6
:1022F00022340034223400342234003422340034B6
:1023000022340034223400342234003422340034A5
:102310002234003422340034223400342234003495
:102320002234003422340034223400342234003485
:102330002234003422340034223400342234003475
:102340002234003422340034223400342234003465
:102350002234003422340034223400342234003455
:102360002234003422340034223400342234003445
:102370002234003422340034223400342234003435
:102380002234003422340034223400342234003425
:102390002234003422340034223400342234003415
:1023A0002234003422340034223400342234003405
:1023B00022340034223400342234003422340034F5
:1023C00022340034223400342234003422340034E5
:1023D00022340034223400342234003422340034D5
:1023E00022340034223400342234003422340034C5
:1023F00022340034223400342234003422340034B5
:1024000022340034223400342234003422340034A4
:102410002234003422340034223400342234003494
:102420002234003422340034223400342234003484
:102430002234003422340034213400342134003476
:102440002134003421340034213400342134003468
:102450002134003421340034213400342134003458
:102460002134003421340034213400342134003448
:102470002134003421340034213400342134003438
:102660002134003420340034203400342034003449
:10267000203400342034003420340034203400343A
:10268000203400342034003420340034203400342A
:10269000203400342034003420340034203400341A
:1026A000203400342034003420340034203400340A
:1028C00020340034203400341F3400341F340034EA
:1028D0001F3400341F3400341F3400341F340034DC
:1028E0001F3400341F3400341F3400341F340034CC
:1028F0001F3400341F3400341F3400341F340034BC
:102900001F3400341F3400341F3400341F340034AB
:102B60001F3400341F3400341E3400341E3400344B
:102B70001E3400341E3400341E3400341E3400343D
:102B80001E3400341E3400341E3400341E3400342D
:102B90001E3400341E3400341E3400341E3400341D
:102BA0001E3400341E3400341E3400341E3400340D
:102E40001E3400341E3400341E3400341D3400346B
:102E50001D3400341D3400341D3400341D3400345E
:102E60001D3400341D3400341D3400341D3400344E
:102E70001D3400341D3400341D3400341D3400343E
:102E80001D3400341D3400341D3400341D3400342E
:103720001B3400341B3400341B340034193400348F
:103730001934003419340034193400341934003485
:103740001934003419340034193400341934003475
:103750001934003419340034193400341934003465
:103760001934003419340034193400341934003455
:103770001934003419340034193400341934003445
:103780001934003419340034193400341934003435
:103790001934003419340034193400341934003425
:1037A0001934003419340034193400341934003415
:1037B0001934003419340034193400341934003405
:1037C00019340034193400341934003419340034F5
:1037D00019340034193400341934003419340034E5
:1037E00019340034193400341934003419340034D5
:1037F00019340034193400341934003419340034C5
:1038000019340034193400341934003419340034B4
:1038100019340034193400341934003419340034A4
:103820001934003419340034193400341934003494
:103830001934003419340034193400341934003484
:103840001934003419340034193400341934003474
:103850001934003419340034193400341934003464
:103860001934003419340034193400341934003454
:103870001934003419340034193400341934003444
:103880001934003419340034193400341934003434
:103890001934003419340034193400341934003424
:1038A0001934003419340034193400341934003414
:1038B0001934003419340034193400341934003404
:1038C00019340034193400341934003419340034F4
:1038D00019340034193400341934003419340034E4
:1038E00019340034193400341934003419340034D4
:1038F00019340034193400341934003419340034C4
:103900001934003419340034193400340800080024
:103910007408730472047104031908008030F406FB
:1039200008000030D0000030CF000030CE00003062
:10393000CD0040082D3EC4000030413DC500440884
:103940008600450887000030C03FC13FC23FC33FEB
:103950004008023EF1000030413DF2004D30C4000D
:103960004408F300C8315A209C3171084001C90055
:103970007208CA00CB01CC010130CD070030CE3D2A
:103980000030CF3D0030D03D40082D3E8600003055
:10399000413D87004908810741314A08813D413155
:1039A0004B08813D41314C08813D4008860041086B
:1039B00087005F31403FC400413FC500423FC60021
:1039C000433FC7005008803AC8004708803A480281
:1039D000031DF42C46084F02031DF42C45084E022B
:1039E000031DF42C44084D02031CA82C400886003B
:1039F000410887005F31403FC400413FC500423F5E
:103A0000C600433FC7004435CD00450DCE00460DEE
:103A1000CF00470DD00040088600410887005B3189
:103A2000403FC400413FC500423FC600433FC7007E
:103A30004D08C4024E08C53B4F08C63B5008C73B63
:103A40004708F4004608F3004508F2004408F10076
:103A50004C08F8004B08F7004A08F6004908F50042
:103A6000C03102209C314008313E86000030413D8B
:103A700087007108C03F7208C13F7308C23F7408D5
:103A8000C33F40082D3E86000030413D8700403F47
:103A9000C400413FC500423FC600433FC700400845
:103AA000313E86000030413D8700403FC407413F22
:103AB000C53D423FC63D433FC73D4008353E8600B9
:103AC0000030413D87004408C03F4508C13F4608DB
:103AD000C23F4708C33F4930A9007430A8002430D2
:103AE000A7000030A6004008353E86000030413D6A
:103AF0008700403FF100413FF200423FF300433F67
:103B0000F4000130CA31DB229C317408AD00730827
:103B1000AC007208AB007108AA00C63187262908DC
:103B2000C3002808C2002708C1002608C0000800FA
:103B30000030B0000030AF000030AE000030AD000B
:103B4000200886002108870016000104031DD32DDC
:103B5000E83086002F308700403FA200413FA3009D
:103B6000423FA400433FA50043015308803A40016F
:103B7000A6002508803A26024301031DCF2D4001EF
:103B8000240843015202031DCF2D400123084301A5
:103B90005102031DCF2D400122084301500203189A
:103BA000D32DFF300800400120088600210887003F
:103BB0001600013AA2001600A204031D092EE830E7
:103BC00086002F308700403FA200413FA300423FC4
:103BD000A400433FA5002508803AA60043013F0802
:103BE000803A40012602031D052E43013E08400194
:103BF0002402031D052E43013D0840012302031D3D
:103C0000052E43013C08400122020318092EFE3014
:103C100008004E019A104001161020088600210865
:103C20008700010C031C9A1003189A1407304001F6
:103C3000A2007D30890B1A2EA20B1A2E40012008FB
:103C4000173EA2000030213DA30022088600230871
:103C500087000030C03FC13FC23FC33F2008023E43
:103C6000F1000030213DF2002D30A2002208F300C7
:103C7000C8315A209D3171094001AB007209AC0076
:103C80002C084401990040012B08440198004E0182
:103C90001012400120088600210887005F31403F54
:103CA000A200413FA300423FA400433FA5002008DB
:103CB0008600210887005731403FA600413FA700FA
:103CC000423FA800433FA9002908803AAA002508DE
:103CD000803A2A02031D762E24082802031D762E20
:103CE00023082702031D762E22082602031C0C1E21
:103CF000352F2008273E86000030213D8700160022
:103D000001040319A62E20082C3E86000030213D18
:103D1000870020082B3E84000030213D85000008EC
:103D2000A2002008293E84000030213D8500003F8C
:103D3000A300013FA4002308840024088500000894
:103D40002205A50025080106031D352F1A1120089C
:103D5000023EF1000030213DF2002D30A200220889
:103D6000F300C8315A209D3171094001AB0072093E
:103D7000AC002008860021088700573101308107F8
:103D800041310030813D41310030813D41310030D1
:103D9000813D0130AD070030AE3D0030AF3D003019
:103DA000B03D1A154E01101ED22E4001402E2008A3
:103DB000273E86000030213D8700160001040319CC
:103DC000042F20082C3E86000030213D870020086B
:103DD0002B3E84000030213D85000008A200200811
:103DE000293E84000030213D8500003FA300013FB3
:103DF000A400230884002408850000082205A500EB
:103E000025080106031DA02F1A112008023EF1000B
:103E10000030213DF2002D30A2002208F300C8310D
:103E20005A209D3171094001AB007209AC00200895
:103E30008600210887005731013081074131003069
:103E4000813D41310030813D41310030813D1A15C5
:103E50004E01101E282F40012C08440199004001FA
:103E60002B08440198004E01101240012008233E07
:103E700086000030213D8700403FA200413FA30063
:103E8000423FA400433FA500200886002108870088
:103E90005731403FA600413FA700423FA800433FA3
:103EA000A9002908803AAA002508803A2A02031DA1
:103EB000632F24082802031D632F23082702031DF4
:103EC000632F22082602031C0C1EA02FD72E1A11C6
:103ED00020088600210887005731013081074131D1
:103EE0000030813D41310030813D41310030813D24
:103EF000FF30AD07FF30AE3DFF30AF3DFF30B03D8E
:103F00002008023EF1000030213DF2002D30A200D9
:103F10002208F300C8315A209D3171094001AB00DD
:103F20007209AC001A154E01101E932F40012C0887
:103F30004401990040012B08440198004E011012E1
:103F40004001B01BB32F3008031DB02F2F08031DF5
:103F5000B02F2E08031DB02F01302D02031CB32FEC
:103F600040010C1A672F4E0190109A14400120084E
:103F700086002108870016000104031DDC2F20089D
:103F80008600210887005731403FA200413FA3002F
:103F9000423FA400433FA500E83086002F30870051
:103FA0002208810741312308813D41312408813DA8
:103FB00041312508813DF92F20088600210887001E
:103FC0005731403FA200413FA300423FA400433F7E
:103FD000A500E83086002F30870022088102413199
:103FE0002308813B41312408813B41312508813B35
:103FF0007D312108F2002008F100D3311D23080093
:104000000800703051018D008F0191010230930042
:104010009201080000304001A3000030A2000030EF
:10402000A1000030A0007408730472047104031925
:104030005428A401A40AF41B29280130F135F20DFB
:10404000F30DF40D890B1E280130F9007908A4073F
:104050001B280130A035A10DA20DA30D890B2A2824
:1040600074087802031D3E2873087702031D3E285A
:1040700072087602031D3E2871087502031C492848
:104080007108F5027208F63B7308F73B7408F83BB9
:1040900020140130F436F30CF20CF10C890B4A2891
:1040A0000130A402031D29282308F4002208F3008C
:1040B0002108F2002008F10008004101C900400178
:1040C0006E084101A90040016D084101A8004001AE
:1040D000ED0A0319EE0A4101280884002908850029
:1040E0000008AA002A08C80048080319FC2F253038
:1040F00048060319A8284908023E860087011600D1
:104100000104031992284808A8002808F300490868
:10411000023E86008701413F8A00403F0A00A031ED
:1041200041015F28490886008701403FA800413FC0
:10413000A900280886002908870048088100490846
:10414000860087010130810741310318810A5F2809
:10415000B601B70140016D0884006E0885001200A9
:104160002E3A031DEF284101371701304001ED07BA
:104170000030EE3D4101C601C70140016D088400D9
:104180006E0885000008DE31E126A031031C952968
:104190000A30F1000030F20041014708F4004608FF
:1041A000F300D0312020A0317208C7007108C6008A
:1041B00040016D0884006E0885000008D03E410172
:1041C000A800FF3003180030A9002808C6072908F6
:1041D000C73D01304001ED070030EE3DBD284101F3
:1041E000C601C70137169529361695293715C129F5
:1041F00040016F08860087010108840085010230B4
:104200008107003F4101B400013FB5003408350487
:10421000031D0E299230B400E130B500B201B301A4
:104220003408320784003508333D85001200031935
:104230001E290130B2070030B33D1029460847045B
:10424000031933294708803AA8003308803A280226
:10425000031D2C293208460203183329410147085F
:10426000B3004608B20001304101B2020030B33B56
:10427000320A0319330A03195F284908023E8600EF
:1042800087011600010403195C29340884003508ED
:1042900085000008A8002808F3004908023E8600AF
:1042A0008701413F8A00403F0A00A13101304101AE
:1042B000B4070030B53D3329340884003508850043
:1042C0000008A800490886008701403FA900413F37
:1042D000AA00290886002A088700280881000130E2
:1042E000B4070030B53D49088600870101308107D9
:1042F00041310318810A332940016F088600870184
:104300000108840085010230810700084101A800EE
:104310002808C800C830B4000030B5000130B20031
:104320000030B3001E293617C12940016E08410133
:10433000A90040016D084101A8004001ED0A0319E0
:10434000EE0A410128088400290885000008C800F9
:10435000003A0319FC2F633A03197C29073A031921
:10436000C129023A0319F6280F3A0319C129053A5F
:104370000319F4281F3A0319F828063A0319932958
:104380008A2900303605A80007303705A90028081B
:10439000290403199F2E371ED1290630C60000308C
:1043A000C70040016F08860087010108840085016D
:1043B00004308107003F4101C200013FC300023FBA
:1043C000C400033FC5004508A3004408A2004308F9
:1043D000A1004208A0000030A7000030A600003075
:1043E000A5000030A400CD315125A03103180F2ABB
:1043F0004508F4004408F3004308F2004208F100C5
:104400009C318824A0317408C5007308C400720868
:10441000C3007108C2000330B6040030B704B8010D
:10442000B9014508F4004408F3004308F2004208CB
:10443000F1000030F8000030F7000030F6000030E6
:10444000F500D431A024A0310318D02A0310410173
:10445000440D450D823EB800FF3003180030B9000E
:10446000FF30B807FF30B93D0330F1000030F200F3
:104470003908F4003808F300D0312020A031720848
:10448000B9007108B8000A30F8000030F9003908A6
:10449000FB003808FA00C8310820A0317908410132
:1044A000B9007808B800B91F592AFF30B807FF30A3
:1044B000B93D3803FF3AB531A225A0314308410187
:1044C000C100400142084101C000400141084101D2
:1044D000BF00400140084101BE0045084001A9005D
:1044E000410144084001A800410143084001A700E0
:1044F000410142084001A600410141084001AD00D0
:10450000410140084001AC0041013F084001AB00BF
:1045100041013E084001AA00B1313521A0312908EE
:104520004101C100400128084101C00040012708A5
:104530004101BF00400126084101BE004108A3001F
:104540004008A2003F08A1003E08A0003F30A7009D
:104550008030A6000030A5000030A400CD315125E8
:10456000A0310318B72AFF30B807FF30CF2A41081F
:10457000A3004008A2003F08A1003E08A00041306F
:10458000A7002030A6000030A5000030A400CD31E7
:104590005125A031031CD02A0130B8070030B93DA5
:1045A00041014708803AA80080302802031DDA2A1A
:1045B0000D30460203180B2B41014608C231682218
:1045C000A0314308D8004208D7004108D60040086F
:1045D000D500410145084001DC004101440840018B
:1045E000DB00410143084001DA004101420840017B
:1045F000D900BE311F26A03158084101C500400135
:1046000057084101C400400156084101C300400160
:1046100055084101C20041013908803AA8008030A4
:104620002802031D152B0A3038020318522B4101B2
:104630004508F4004408F3004308F2004208F10082
:104640000030F8000030F7000030F6000030F500D0
:10465000D431A024A0310318A62B41014508400104
:10466000D800410144084001D700410143084001FE
:10467000D600410142084001D500D531E825A031DE
:104680005808570456045504031DA62B4101390848
:10469000803AA80080302802031D502B02303802D7
:1046A000031CA62B41014108A3004008A2003F08BB
:1046B000A1003E08A0004030A7008930A60070305D
:1046C000A5005F30A400CD315125A03103186A2B1D
:1046D000F7306B2BF830B807FF30B93D3808B531EB
:1046E000A225A03143084101C10040014208410117
:1046F000C000400141084101BF00400140084101A4
:10470000BE004508F4004408F3004308F2004208E4
:10471000F1004108F8004008F7003F08F6003E08A5
:10472000F500CB317123A03174084101BD0073083D
:10473000BC007208BB007108BA000030C500003030
:10474000C4000030C3000030C200F22B4101450814
:104750004001D800410144084001D700410143080D
:104760004001D600410142084001D500D531E8257D
:10477000A03158084101BD00400157084101BC006B
:10478000400156084101BB00400155084101BA00F3
:104790003D08F4003C08F3003B08F2003A08F10041
:1047A0000030CA31DB22A03174084101A300730834
:1047B000A2007208A1007108A0004508A7004408E3
:1047C000A6004308A5004208A400D2317E22A031F1
:1047D0002308C5002208C4002108C3002008C20025
:1047E000B801B901C801C80A0A3048060319252CC6
:1047F0004808A800A901A835A90DA835A90D683059
:1048000028078400D830293D8500003FAA00013FD9
:10481000AB00023FAC00033FAD002D083D02031D7D
:104820001B2C2C083C02031D1B2C2B083B02031DD8
:104830001B2C2A083A02031C252C0130A80028084A
:10484000C8070A304806031DF82B36080339031938
:10485000542C4908023E8600870116000104031902
:104860003F2C2D30A8002808F3004908023E86009E
:104870008701413F8A00403F0A00A431542C490877
:1048800086008701403FA800413FA9002808860014
:10489000290887002D3081004908860087010130F2
:1048A000810741310318810A01304101C802480AD9
:1048B0000319062D4808A800A901A835A90DA83597
:1048C000A90D683028078400D830293D8500003FB5
:1048D000F100013FF200023FF300033FF4003D0806
:1048E000F8003C08F7003B08F6003A08F500A03154
:1048F0000A20A03174084101C1007308C000720889
:10490000BF007108BE0000304001A8000030A700C1
:104910000030A6000A30A500410141084001AC006A
:10492000410140084001AB0041013F084001AA009D
:1049300041013E084001A900D331D623A031280807
:104940004101C100400127084101C0004001260883
:104950004101BF00400125084101BE004908023E57
:1049600086008701160001040319C52C3E08303E5D
:10497000A8002808F3004908023E86008701413F4D
:104980008A00403F0A00A431542C3E08303EA80063
:10499000490886008701403FA900413FAA00290835
:1049A00086002A08870028084B2C41014908023E4E
:1049B00086008701160001040319EC2C3030A80092
:1049C0002808F3004908023E86008701413F8A001B
:1049D000403F0A00A431012D490886008701403F6D
:1049E000A800413FA9002808860029088700303028
:1049F0008100490886008701013081074131031891
:104A0000810AFF304101B807FF30B93D3908803ACB
:104A1000A80080302802031D0F2D01303802031832
:104A2000D52C41014708803AA80080302802031D98
:104A30001B2D09304602031C202D08304101222D78
:104A400041014608A8002808C8004808A800A90194
:104A50002808C6022908C73B480803195A2D4908E7
:104A6000023E86008701160001040319452D2E30F1
:104A7000A8002808F3004908023E86008701413F4C
:104A80008A00403F0A00A5315A2D49088600870157
:104A9000403FA800413FA900280886002908870058
:104AA0002E3081004908860087010130810741319D
:104AB0000318810A41014808B531A225A0314308F5
:104AC0004101B100400142084101B00040014108EC
:104AD0004101AF00400140084101AE0031084001F2
:104AE000AD00410130084001AC0041012F084001F8
:104AF000AB0041012E084001AA00410145084001D8
:104B0000A900410144084001A800410143084001B7
:104B1000A700410142084001A600B1313521A03172
:104B20002908D8002808D7002708D6002608D5006D
:104B3000D531E825A03158084101BD004001570892
:104B40004101BC00400156084101BB00400155082D
:104B50004101BA000130C802480A03199A2E4808D8
:104B6000A800A901A835A90DA835A90D6830280706
:104B70008400D830293D8500003FF100013FF2005C
:104B8000023FF300033FF4003D08F8003C08F70043
:104B90003B08F6003A08F500A0310A20A03174085D
:104BA0004101C1007308C0007208BF007108BE0057
:104BB00000304001A8000030A7000030A6000A30F5
:104BC000A500410141084001AC00410140084001FD
:104BD000AB0041013F084001AA0041013E084001ED
:104BE000A900D331D623A03128084101C1004001DA
:104BF00027084101C000400126084101BF004001D3
:104C000025084101BE004908023E860087011600C2
:104C1000010403191A2E3E08303EA8002808F300AC
:104C20004908023E86008701413F8A00403F0A0052
:104C3000A631322E3E08303EA80049088600870182
:104C4000403FA900413FAA00290886002A088700A2
:104C50002808810049088600870101308107413119
:104C60000318810A41014808A800A901A835A90D27
:104C7000A835A90D683028078400D830293D850063
:104C8000003F4001A500013FA600023FA700033FEF
:104C9000A80041013D084001AC0041013C08400131
:104CA000AB0041013B084001AA0041013A08400124
:104CB000A900D331D623A03128084101BD0040010D
:104CC00027084101BC00400126084101BB0040010A
:104CD0002508A82D4908023E860087011600010418
:104CE0000319802E3030A8002808F3004908023E3E
:104CF00086008701413F8A00403F0A00A631952E79
:104D0000490886008701403FA800413FA9002808C4
:104D10008600290887003030810049088600870115
:104D20000130810741310318810AFF304101C60774
:104D3000FF30C73D4608470403195F286A2E361B1B
:104D4000DE2E361EB52E40016F0886008701010851
:104D50008400850104308107003F4101BA00013F12
:104D6000BB00023FBC00033FCB2E40016F08860012
:104D7000870101088400850102308107003F41015D
:104D8000A800013FA9002808BA002908BB00890D26
:104D9000893B8909BC00BD00BD1F072F0330B60445
:104DA0000030B704BA09BB09BC09BD09BA0A031926
:104DB000BB0A0319BC0A0319BD0A072F361EF32EBE
:104DC00040016F08860087010108840085010430D6
:104DD0008107003F4101BA00013FBB00023FBC0018
:104DE000033FBD00072F40016F08860087010108BF
:104DF0008400850102308107003F4101A800013F86
:104E0000A9002808BA002908BB00BC01BD0146085A
:104E10004704031D152F3D083C043B043A04031DC1
:104E2000152F0130C6070030C73DC801C80A0A3037
:104E300048060319482F4808A800A901A835A90D5C
:104E4000A835A90D683028078400D830293D850091
:104E5000003FAA00013FAB00023FAC00033FAD00A2
:104E60002D083D02031D3E2F2C083C02031D3E2F42
:104E70002B083B02031D3E2F2A083A02031C482F31
:104E80000130A8002808C8070A304806031D1B2F58
:104E90004708803A803C031D4F2F46084802031CF8
:104EA000652F41014708803AA80080302802031D81
:104EB0005B2F480846020318652F41014808A800E7
:104EC000A9012808C6002908C7004101360803398E
:104ED0000319952F4908023E860087011600010438
:104EE0000319802F2D30A8002808F3004908023E3E
:104EF00086008701413F8A00403F0A00A731952F75
:104F0000490886008701403FA800413FA9002808C2
:104F10008600290887002D30810049088600870116
:104F20000130810741310318810AFF304101C60772
:104F3000FF30C73D460A0319470A03195F280030AE
:104F40004001A8000030A7000030A6000A30A500EC
:104F5000410147088500460884008435850D843565
:104F6000850D68308407D830853D003FF100013F52
:104F7000F200023FF300033FF4003D08F8003C0854
:104F8000F7003B08F6003A08F500A0310A20A031EE
:104F90007408AC007308AB007208AA007108A9007D
:104FA000D331D623A0312508303E4101A80028087E
:104FB000C8004908023E8600870116000104031953
:104FC000EF2F4808A8002808F3004908023E860091
:104FD0008701413F8A00403F0A00A731952F4908C9
:104FE00086008701403FA800413FA90028088600AD
:104FF0002908870048088C2F4001ED01EE010800C8
:1050000042016308640403190A2864088A006308DB
:105010000A00A8317E01CA1208002F08A3002E083A
:10502000A2002D08A1002C08A0002B08A7002A0828
:10503000A6002908A5002808A400CD315125A831D3
:1050400003182A282B08AF002A08AE002908AD0053
:105050002808AC003308A3003208A2003108A100E0
:105060003008A0002F08A7002E08A6002D08A500D4
:105070002C08A400CD315125A831031847282F084A
:10508000B3002E08B2002D08B1002C08B0002B0888
:105090004301DB0041012A084301DA0041012908EC
:1050A0004301D900410128084301D80041012F08DC
:1050B0004301DF0041012E084301DE0041012D08BC
:1050C0004301DD0041012C084301DC0041013308AC
:1050D0004301E300410132084301E200410131088C
:1050E0004301E100410130084301E00041012B0888
:1050F0004001E30041012A084001E2004101290882
:105100004001E100410128084001E000D131A02127
:10511000A83163084101BB00400162084101BA00A7
:10512000400161084101B900400160084101B80037
:105130002F084001E30041012E084001E200410137
:105140002D084001E10041012C084001E000D1316F
:10515000A021A83163084101BF004001620841015C
:10516000BE00400161084101BD00400160084101ED
:10517000BC0033084001E300410132084001E20075
:10518000410131084001E100410130084001E000E7
:10519000D131A021A83163084101C3004001620858
:1051A0004101C200400161084101C10040016008A5
:1051B0004101C000F83086002E3087004F3138089A
:1051C000C03F3908C13F3A08C23F3B08C33FF830EF
:1051D00086002E30870053313C08C03F3D08C13F58
:1051E0003E08C23F3F08C33F38083C02B4003908BC
:1051F0003D3BB5003A083E3BB6003B083F3BB7009D
:10520000F83086002E3087005B313408C03F350807
:10521000C13F3608C23F3708C33FF83086002E3002
:10522000870047312C08C03F2D08C13F2E08C23FE0
:105230002F08C33F403086002F3087003C08C03F16
:105240003D08C13F3E08C23F3F08C33F443086008F
:105250002F3087004008C03F4108C13F4208C23F8D
:105260004308C33F3C084002B4003D08413BB50041
:105270003E08423BB6003F08433BB7004C30860037
:105280002F3087003408C03F3508C13F3608C23F81
:105290003708C33F383086002F3087003008C03FC2
:1052A0003108C13F3208C23F3308C33F793086001E
:1052B0002F3087004008C03F4108C13F4208C23F2D
:1052C0004308C33F7D3086002F3087003808C03F39
:1052D0003908C13F3A08C23F3B08C33F3808400283
:1052E000B4003908413BB5003A08423BB6003B08E0
:1052F000433BB700853086002F3087003408C03F1D
:105300003508C13F3608C23F3708C33F71308600B9
:105310002F3087002808C03F2908C13F2A08C23F14
:105320002B08C33F0800E400E5016430F1000030C1
:10533000F200D0310720A9312108031D8B2EDD2F6B
:1053400001304101DC005C08E50704306502031808
:10535000E5016430F1000030F200D0310720A931BE
:10536000DD2F41016508031DB9290330DC005C080D
:10537000E5000130E502A929A1019A2B42016F083D
:105380004001D80042016E084001D70042016D087B
:105390004001D60042016C084001D5004101690876
:1053A00086006A0887004731403F4001D900413FED
:1053B000DA00423FDB00433FDC00BE311F26A9314B
:1053C0004101690886006A08870047314001550895
:1053D000C03F5608C13F5708C23F5808C33F283056
:1053E000A03E860001308700403F4101A000413FC0
:1053F000A100423FA200433FA300690886006A085B
:1054000087004731403FA400413FA500423FA6002E
:10541000433FA700CD315125A93103181D2A690842
:1054200086006A088700473143014808C03F4908A1
:10543000C13F4A08C23F4B08C33F023041016406E6
:10544000031D572A690886006A0887004731403FD4
:10545000C400413FC500423FC600433FC700C031C2
:105460003120A9316A084001E50041016908400185
:10547000E4004101690886006A0887004331403F23
:105480004001E600413FE700423FE800433FE900BA
:105490004101690886006A08870042310108DC0082
:1054A0005C084001EA00BC315024A931DD2F0330F3
:1054B0006406031D902A690886006A088700473140
:1054C000403FC400413FC500423FC600433FC700C4
:1054D000D7318D27A9316A084001E50041016908EB
:1054E0004001E4004101690886006A0887004331F1
:1054F000403F4001E600413FE700423FE800433FB4
:10550000E9004101690886006A0887004231010804
:10551000DC005C084001EA00BC315024A931DD2FD9
:105520006403031DDD2F690886006A088700473180
:10553000403FC400413FC500423FC600433FC70053
:10554000CC31A824A9316A084001E500410169086D
:105550004001E4004101690886006A088700433180
:10556000403F4001E600413FE700423FE800433F43
:10557000E9004101690886006A0887004231010894
:10558000DC005C084001EA00BC315024A931DD2F69
:105590006A084001AF00410169084001AE00B8311E
:1055A0002320A9314101690886006A0887005F311C
:1055B00040012E08C03F2F08C13F3008C23F3108CC
:1055C000C33F4101690886006A0887005F31403F98
:1055D000DC00413FDD00423FDE00433FDF00690861
:1055E00086006A0887005B31403FE000413FE100F0
:1055F000423FE200433FE3005C08E0025D08E13B1C
:105600005E08E23B5F08E33B6908233E860000300A
:105610006A3D87006008C03F6108C13F6208C23F21
:105620006308C33F690886006A0887005F31403F0E
:105630004001AE00413FAF00423FB000433FB100E8
:105640004101690886006A08870042310108D531A6
:105650003425A9314101690886006A0887004B3169
:1056600040012E08C03F2F08C13F3008C23F31081B
:10567000C33F4101690886006A0887004B31403FFB
:105680004001C000413FC100423FC200433FC30050
:10569000D131CB21A9314101690886006A08870010
:1056A000433140014008C03F4108C13F4208C23F6A
:1056B0004308C33F41016A084001C1004101690834
:1056C0004001C0009C319124A931DD2F690886007A
:1056D0006A088700423101080319DD2F6908860036
:1056E0006A0887004231013081026A084001E50002
:1056F000410169084001E4004101690886006A0827
:1057000087004331403F4001E600413FE700423F10
:10571000E800433FE9004101690886006A08870004
:1057200042310108DC005C084001EA00BC31502431
:10573000A931DD2F41016508003A0319BE29013A5C
:105740000319C82A033A0319662BDD2FDD2FA101A7
:105750006F2D42016F084101A30042016E08410113
:10576000A20042016D084101A10042016C08410103
:10577000A000690886006A0887004731403FA400FE
:10578000413FA500423FA600433FA700D2317E2201
:10579000A931690886006A08870047312008C03FA0
:1057A0002108C13F2208C23F2308C33F6908860081
:1057B0006A0887004731403FA000413FA100423FB7
:1057C000A200433FA3001430A03E860001308700B2
:1057D000403FA400413FA500423FA600433FA70031
:1057E000CD315125A9310318032C690886006A08B8
:1057F0008700473143013408C03F3508C13F3608B0
:10580000C23F3708C33F023041016406031D562CD6
:105810003830A03E860001308700403FA800413F5D
:10582000A900423FAA00433FAB00690886006A080E
:1058300087004731403FAC00413FAD00423FAE00E2
:10584000433FAF004030A03E860001308700403F1C
:10585000B000413FB100423FB200433FB300A83126
:105860000D20A9316A084001E500410169084001A5
:10587000E4004101690886006A0887004331403F1F
:105880004001E600413FE700423FE800433FE900B6
:105890004101690886006A08870042310108DC007E
:1058A0005C084001EA00BC315024A93103304101B9
:1058B0006406031DDD2F3830A03E860001308700CE
:1058C000403FA800413FA900423FAA00433FAB0030
:1058D0003C30A03E860001308700403FAC00413F95
:1058E000AD00423FAE00433FAF00690886006A0842
:1058F00087004731403FB000413FB100423FB20016
:10590000433FB300A8310D20A9316A084001E500EA
:10591000410169084001E4004101690886006A0804
:1059200087004331403F4001E600413FE700423FEE
:10593000E800433FE9004101690886006A088700E2
:1059400042310108DC005C084001EA00BC3150240F
:10595000A931DD2F6A08F9006908F800C931D6219C
:10596000A9314101690886006A0887005F3178081B
:10597000C03F7908C13F7A08C23F7B08C33F69082E
:1059800086006A0887005F31403FDC00413FDD0050
:10599000423FDE00433FDF00690886006A08870057
:1059A0005B31403FE000413FE100423FE200433FC6
:1059B000E3005C08E0025D08E13B5E08E23B5F0853
:1059C000E33B6908233E860000306A3D870060089B
:1059D000C03F6108C13F6208C23F6308C33F690816
:1059E00086006A0887005F31403F4001AE00413FBA
:1059F000AF00423FB000433FB1004101690886005B
:105A00006A08870042310108D5313425A9314101A6
:105A1000690886006A0887004B3140012E08C03FA4
:105A20002F08C13F3008C23F3108C33F4101690818
:105A300086006A0887004B31403F4001C000413F6B
:105A4000C100423FC200433FC300D131CB21A93145
:105A50004101690886006A08870043314001400817
:105A6000C03F4108C13F4208C23F4308C33F5A2BD1
:105A7000690886006A08870042310630010203186F
:105A8000DD2F0130DC00690886006A08870042319A
:105A90005C0881076A084001E5004101690840018E
:105AA000E4004101690886006A0887004331403FED
:105AB0004001E600413FE700423FE800433FE90084
:105AC0004101690886006A08870042310108DC004C
:105AD0005C084001EA00BC315024A931DD2F4101AE
:105AE0006508003A0319A92B013A0319AA2C033AB5
:105AF0000319382DA62B41016508031DDD2F400138
:105B0000A001A00A2830A100E130A2000130D2316A
:105B1000E722A9314101690886006A0887005331EC
:105B2000403FA900413FAA00423FAB00433FAC00C9
:105B30004130B000A030AF000030AE000030AD000A
:105B40000430DC005C08B100D431E924A931DD2F38
:105B500041016508031DDD2F690886006A0887007A
:105B60004F31403FA900413FAA00423FAB00433FB5
:105B7000AC004230B0004830AF000030AE00003022
:105B8000AD000430DC005C08B100D431E924A93157
:105B9000DD2F41304001A9002030A8000030A700CF
:105BA0000030A60042016F084001AD0042016E08BE
:105BB0004001AC0042016D084001AB0042016C089D
:105BC0004001AA00B1313521A93129084201EF0075
:105BD000400128084201EE00400127084201ED0083
:105BE000400126084201EC0042304101A300C830C8
:105BF000A2000030A1000030A00042016F08410166
:105C0000A70042016E084101A60042016D08410152
:105C1000A50042016C084101A400CD315125A931F4
:105C200003181B2E42304201EF00C830EE00003056
:105C3000ED000030EC000A30F1000030F200D0310D
:105C40000720A931DD2F41304001A9002030A800F4
:105C50000030A7000030A60042016F084001AD00EF
:105C600042016E084001AC0042016D084001AB00EA
:105C700042016C084001AA00C6318726A9312908D3
:105C80004201EF00400128084201EE0040012708D0
:105C90004201ED00400126084201EC006F0841017D
:105CA000A30042016E084101A20042016D084101BA
:105CB000A10042016C084101A0003C30A700233044
:105CC000A600D730A5000A30A400CD315125A93156
:105CD00003181B2E3C304201EF002330EE00D7307A
:105CE000ED000A301A2E3C30A03E860001308700BD
:105CF000403F4101C400413FC500423FC600433F11
:105D0000C700C0313120A9310A30F1000030F20063
:105D1000D031072008002008093A0319232E033A3E
:105D20000319A72B063A0319A82D1D3A0319A02918
:105D3000033A03197B2D063A0319B129353A0319A1
:105D4000C92D033A0319BC29063A0319732EDD2F16
:105D50005430CA000230CB001530CC00E030CD000A
:105D60006A084001C100410169084001C0009C313E
:105D70009124A93143084101D10040014208410169
:105D8000D000400141084101CF00400140084101DD
:105D9000CE0042016F084101D50042016E08410169
:105DA000D40042016D084101D30042016C08410159
:105DB000D200B8310220A9312030DC005C08450156
:105DC000C600C701E83086002F308700403F410100
:105DD000DC00413FDD00423FDE00433FDF00690859
:105DE00086006A0887005331403FE000413FE100F0
:105DF000423FE200433FE3005F086306031D0A2FB2
:105E00005E086206031D0A2F5D086106031D0A2F46
:105E10005C0860060319112F2A30DC005C0845017C
:105E2000C600033041016406031D462F4D30CA00F1
:105E30000130CB004830CC00E030CD00C630CE0081
:105E40000230CF00690886006A0887005B31403F56
:105E50004001C000413FC100423FC200433FC30078
:105E6000D131CB21A93143084101D300400142087F
:105E70004101D200400141084101D10040014008E8
:105E80004101D000B8310220A931E92F4D30CA00BC
:105E90000130CB009730CC00E030CD00C630CE00D2
:105EA0000230CF00690886006A0887004731403F0A
:105EB000D000413FD100423FD200433FD300B83130
:105EC0000220A931E92F5430CA000230CB00333010
:105ED000CC00E130CD006A084001C10041016908F1
:105EE0004001C0009C319124A93143084101D100F7
:105EF000400142084101D000400141084101CF006A
:105F0000400140084101CE00B8310220A9314D3096
:105F1000CA000130CB005830CC00E030CD00690819
:105F200086006A0887004331403FCE00413FCF00E2
:105F3000423FD000433FD100B8310220A931E92FC0
:105F40005430CA000230CB003330CC00E130CD00F9
:105F50006A084001C100410169084001C0009C314C
:105F60009124A93143084101D10040014208410177
:105F7000D000400141084101CF00400140084101EB
:105F8000CE00B8310220A9314D30CA000130CB001B
:105F90005330CC00E130CD00690886006A088700E4
:105FA00042310630DC0001085C02CE00CF01031C48
:105FB000CF03B8310220A931E92F41016508003A29
:105FC0000319A82E013A0319632F033A0319A02FCE
:105FD000E92F4001A001A00A5430A1000230A20024
:105FE0000130D231E722A9314001A001A00A4D3091
:105FF000A1000130A2000230D231E722A9319C2950
:106000000430900020308F0091019A308D008C0177
:106010004E0190109A148730F1001C30F200D031FC
:106020000120903045018E0008000030A3000030B0
:10603000A2000030A1000230A0002E0886002F0828
:1060400087005B31403FF100413FF200423FF300E7
:10605000433FF400DF313D27B0317408A7007308D7
:10606000A6007208A5007108A400C9315521B031FD
:10607000A31B46282308031D72282208031D72282B
:10608000E93020020D30213B031872280030400116
:10609000A3000030A2000030A1000230A0002E08B2
:1060A00086002F0887005B31403FF100413FF2003E
:1060B000423FF300433FF400DF313D27B031740825
:1060C000A7007308A6007208A5007108A400C931D2
:1060D0005521B0312308BD002208BC002108BB00B7
:1060E00020087A2800304001BD000030BC000D308F
:1060F000BB00E830BA00B3280030C1000630C00051
:106100001A308F280030C1000430C0002E30BF008C
:106110005030B1280030C1000230C000AF30BF00A5
:106120008030B1280030C1000130C0008630BF008F
:10613000A030B1280030C1000030C0006130BF0085
:10614000A830B1280030C1000030C0001830BF00B6
:106150006A30B1280030C1000030C0000130BF00FB
:106160008630BE00CF282E0886002F0887004231D7
:106170000108003A03197C28013A03198228033ADE
:1061800003198A28013A03199228073A03199A2811
:10619000013A0319A228033A0319AA28CF282E0886
:1061A00086002F0887004B31403FF100413FF2004D
:1061B000423FF300433FF4002E0886002F0887007B
:1061C0004B31403FF500413FF600423FF700433F6F
:1061D000F800C0310220B0317408B5007308B40073
:1061E0007208B3007108B2004108A3004008A20081
:1061F0003F08A1003E08A0003508A7003408A6000B
:106200003308A5003208A400C9315521B031230854
:10621000B9002208B8002108B7002008B6003908E4
:10622000803AF9003D08803A7902031D21293C0893
:106230003802031D21293B083702031D21293A0892
:106240003602031C2C293D08B1003C08B0003B0875
:10625000AF003A08AE0008003908B1003808B000B5
:106260003708AF003608AE00080029088039AE00B4
:106270002E08B3002935AE002E08B500A81B351432
:10628000350803195029350A031D4E290030A9008D
:106290000030A8000030A7000030A600A817582939
:1062A0000030A9000030A8000030A7000030A60090
:1062B0002D088039AE002E08B3062D35AE002E080D
:1062C000B400AC1B3414340803197329340A031DB9
:1062D00071290030AD000030AC000030AB00003060
:1062E000AA00AC177B290030AD000030AC000030B4
:1062F000AB000030AA003408031D3508031D8929AE
:106300000030A9000030A8000030A7000030A6002F
:1063100008002608AE002E08F1002C08D03193208A
:10632000B1317208BF007108BE003E08AE00AF0177
:10633000B001B1013108B9003008B8002F08B7002A
:106340002E08B6003F08AE00AF01B001B101310820
:10635000BD003008BC002F08BB002E08BA0027087B
:10636000AE002E08F1002B08D0319320B131720815
:10637000BF007108BE003E08AE00AF01B001B10120
:106380002E08B6072F08B73D3008B83D3108B93D93
:106390003F08AE00AF01B001B1012E08BA072F08C7
:1063A000BB3D3008BC3D3108BD3D2808AE002E087D
:1063B000F1002A08D0319320B1317208BF00710872
:1063C000BE003E08AE00AF01B001B1012E08B60715
:1063D0002F08B73D3008B83D3108B93D3F08AE0041
:1063E000AF01B001B1012E08BA072F08BB3D30083C
:1063F000BC3D3108BD3D0830B635B70DB80DB90DFF
:10640000890BFC292708AE002E08F1002A08D0319C
:106410009320B1317208BF007108BE003E08B60774
:106420003F08B73D0030B83DB93D2608AE002E0804
:10643000F1002B08D0319320B1317208BF007108F0
:10644000BE003E08B6073F08B73D0030B83DB93D35
:106450000830B635B70DB80DB90D890B292A2608B5
:10646000AE002E08F1002A08D0319320B131720815
:10647000BF007108BE003E08B6073F08B73D0030B8
:10648000B83DB93D2708AE002E08F1002C08D031E8
:106490009320B1317208BF007108BE003E08BA07F0
:1064A0003F08BB3D0030BC3DBD3D2808AE002E0876
:1064B000F1002B08D0319320B1317208BF00710870
:1064C000BE003E08BA073F08BB3D0030BC3DBD3DA5
:1064D0002808AE002E08F1002C08D0319320B131ED
:1064E0007208BF007108BE003E08AE003F08AF0052
:1064F000B001B1010830AE35AF0DB00DB10D890B53
:106500007B2A2E08BA072F08BB3D3008BC3D310856
:10651000BD3D3908AE00AF01B001B1012E08BA0788
:106520002F08BB3D3008BC3D3108BD3D0830B635B5
:10653000B70DB80DB90D890B972A35083407AE0091
:10654000AF01AF0D2E08823EBE00FF302F3DBF00D1
:10655000BC1BBF2A0130BA35BB0DBC0DBD0D890B6C
:10656000AB2AB91B3A140130B635B70DB80DB90DC9
:10657000890BB42AFF30BE07FF30BF3DA82AB40103
:10658000B91FD82AFF303605AE00FF303705AF00FF
:10659000FF303805B0007F303905B10031083004D4
:1065A0002F042E0403193A18D62AD82AB401B40AA3
:1065B00034080319012B0130BA070030BB3D00300D
:1065C000BC3D0030BD3D3D1C012B3A08AE003B08F0
:1065D000AF003C08B0003D08B1000130B200B13757
:1065E000B00CAF0CAE0CB20BEF2A3108BD00300876
:1065F000BC002F08BB002E08BA000130BE070030D7
:10660000BF3D3F08803AAE0080302E02031D0A2BAA
:10661000FF303E02031C162B7F304001BD0080304E
:10662000BC000030BB000030BA00402B40013F08E6
:10663000803AAE0080302E02031D202B01303E0236
:1066400003182D2B00304001BD000030BC0000308D
:10665000BB000030BA00B301402B40013E08AE0041
:106660002E08B500FF30BA05FF30BB057F30BC05F2
:106670000030BD053518BC173536AE002E08BD00FC
:106680003308AE002E08BD043D08A9003C08A80050
:106690003B08A7003A08A6000800D131F721B33122
:1066A000DE31EF26B3318530F1005530F200D031C4
:1066B0000120B3317430F1005030F200DE318D260C
:1066C000B3317430F1005030F200DE316B26B3315B
:1066D0007430F1005030F200DE317026B3318B1788
:1066E0000B174001A001A00A0530A100E130A20073
:1066F0000130D231E722B33140019616A03041017A
:10670000CA00E130CB00D0313B20B331C531172571
:10671000B331C1312921B3314401EA01EB01D73151
:106720002027B331C831D720B3314E01901DF72B4C
:106730009011C6304101CA000230CB009930CC0024
:10674000E030CD00E83086002F308700403F400128
:10675000C000413FC100423FC200433FC300D131AE
:10676000CB21B33143084101D1004001420841012E
:10677000D000400141084101CF00400140084101E3
:10678000CE00B8310220B3314001A001A00AC630CA
:10679000A1000230A2000230D231E722B331400121
:1067A000A001A00A7830A100E030A2000130D2316F
:1067B000E722B33101304401EA070030EB3D6B08BA
:1067C000803A4101E70080306702031DEA2B0B305D
:1067D00044016A02031CF72BA0304101CA00E130DA
:1067E000CB00D0313B20B3314401EA01EB0142013F
:1067F0002108031D8A2D8F2B02304101E700670815
:10680000EB00BA319F22B3313830A03E8600013010
:106810008700403F4101A800413FA900423FAA0034
:10682000433FAB003C30A03E860001308700403F34
:10683000AC00413FAD00423FAE00433FAF004030AF
:10684000A03E860001308700403FB000413FB100CC
:10685000423FB200433FB300A8310D20B331F830BE
:106860004001E4002E30E500F83086002E3087002D
:106870004331403FE600413FE700423FE800433FED
:10688000E900F83086002E308700423101084101CE
:10689000E70067084001EA00BC315024B3313130D1
:1068A000E4002F30E500343086002F308700403F71
:1068B000E600413FE700423FE800433FE900333054
:1068C00086002F30870001084101E700670840017A
:1068D000EA00BC315024B3316A30E4002F30E500C7
:1068E0006D3086002F308700403FE600413FE700D3
:1068F000423FE800433FE9006C3086002F308700BC
:1069000001084101E70067084001EA00BC3150245A
:10691000B33154304101CA000230CB001130CC00F9
:10692000E130CD003830A03E860001308700403F86
:10693000CE00413FCF00423FD000433FD1003C302A
:10694000A03E860001308700403FD200413FD30087
:10695000423FD400433FD500B8310220B3314D301F
:10696000CA000130CB001130CC00E130CD00403006
:10697000A03E860001308700403FCE00413FCF005F
:10698000423FD000433FD100E83086002F308700DF
:10699000403F4001C000413FC100423FC200433F71
:1069A000C300D131CB21B33143084101D5004001AF
:1069B00042084101D400400141084101D300400197
:1069C00040084101D200B8310220B3314001A0019A
:1069D000A00A5430A1000230A2000130D231E722D7
:1069E000B3314001A001A00A4D30A1000130A20046
:1069F0000230D231E722B331E830F1000330F20047
:106A0000D0310720B3318F2B4001A001A00A79308B
:106A1000A100E130A2000130D231E722B331A1015F
:106A20006430F1000030F200D0310720B3310C3077
:106A3000420120060319202DCE31C926B331172D6E
:106A40006430F1000030F200D0310720B3318F2BD9
:106A500042304101AC00C830AB000030AA00003029
:106A6000A9000330E7006708AD003030A03E860083
:106A700001308700403FAE00413FAF00423FB000D1
:106A8000433FB1001C30A03E860001308700403FEC
:106A9000B200413FB300423FB400433FB500CD31A7
:106AA000FE25B3318F2BDE319926B3318F2BC131C7
:106AB0002921B3318F2BA101C6304101CA00023018
:106AC000CB00D230CC00E030CD00420120084101A3
:106AD000E700E8016708CE006808CF0044016B08B2
:106AE0004101D10044016A084101D000B8310220BF
:106AF000B33101304401EA070030EB3D4001A00111
:106B0000A00AC630A1000230A2000130D231E72233
:106B1000B331202D2008093A0319572D033A0319E0
:106B2000282D063A0319532D1E3A0319042D333A22
:106B30000319A12D033A0319282D063A0319FC2B3A
:106B40005B2D8F2B4001D400D41FD42ED409D40A3E
:106B50005408803A123E031C532E0A30F8000030CD
:106B6000F9005408F300F401F31BF4036430F1005E
:106B70000030F200D4315B24B5317208FB0071089B
:106B8000FA00C8310820B5317808093EC400C501B3
:106B9000C435C50DC435C50D343044078400D83024
:106BA000453D8500003FC600013FC700023FC800C9
:106BB000033FC9004908A9004808A8004708A700E2
:106BC0004608A6006430F8000030F9005408FA00C6
:106BD000FB01FA1BFB03C8310820B5317808123ECF
:106BE000CA00CB01CA35CB0DCA35CB0D34304A07AC
:106BF0008400D8304B3D8500003FCC00013FCD00E4
:106C0000023FCE00033FCF004F08AD004E08AC005E
:106C10004D08AB004C08AA00B1313521B531290827
:106C2000D3002808D2002708D1002608D0000A3057
:106C3000F1000030F2005408F300F401F31BF403F8
:106C4000D4315B24B5317108C400C501C435C50D0C
:106C5000C435C50D343044078400D830453D850027
:106C6000003FC600013FC700023FC800033FC90004
:106C70004908A9004808A8004708A7004608A60038
:106C80005308AD005208AC005108AB005008AA00F0
:106C9000B13135212908C3002808C2002708C100E6
:106CA0002608C00008005408803A753E031CB62E22
:106CB0000A30F1000030F2005408F300F401F31B35
:106CC000F403D4315B24B5317108C400C501C43567
:106CD000C50DC435C50D343044078400D830453D5A
:106CE0008500003FC600013FC700023FC800033FC8
:106CF000C9004908A9004808A8004708A700460895
:106D0000A6000A30F8000030F9005408FA00FB0130
:106D1000FA1BFB03C8310820B5317808093ECA00C8
:106D2000CB01CA35CB0DCA35CB0D34304A078400B0
:106D3000D8304B3D8500003FCC00013FCD00023FE5
:106D4000CE00033FCF004F08AD004E08AC004D0809
:106D5000AB004C08AA00B13135212908C30028082E
:106D6000C2002708C1002608C00008005408C4005B
:106D7000C501C435C50DC435C50D34304407840084
:106D8000D830453D8500003FC600013FC700023FA7
:106D9000C800033FC9004908C3004808C2004708AB
:106DA000C1004608C00008005408803A123E031C87
:106DB0007F2F0A30F8000030F9005408F300F40186
:106DC000F31BF4036430F1000030F200D4315B2493
:106DD000B5317208FB007108FA00C8310820B531DE
:106DE0007808093EC400C501C435C50DC435C50DBC
:106DF000003044078400D830453D8500003FC60080
:106E0000013FC700023FC800033FC9004908A9006D
:106E10004808A8004708A7004608A6006430F80004
:106E20000030F9005408FA00FB01FA1BFB03C831DB
:106E30000820B5317808123ECA00CB01CA35CB0D07
:106E4000CA35CB0D00304A078400D8304B3D850051
:106E5000003FCC00013FCD00023FCE00033FCF00FA
:106E60004F08AD004E08AC004D08AB004C08AA001E
:106E7000B1313521B5312908D3002808D2002708BF
:106E8000D1002608D0000A30F1000030F20054088A
:106E9000F300F401F31BF403D4315B24B531710822
:106EA000C400C501C435C50DC435C50D0030440747
:106EB0008400D830453D8500003FC600013FC70033
:106EC000023FC800033FC9004908A9004808A800BC
:106ED0004708A7004608A6005308AD005208AC00BA
